:020000040000fa
:080000000002040000000000f2
:020000040000fa
:04000800c40600002a
:020000040000fa
:04000c00e40200000a
:020000040000fa
:0400100026030000c3
:020000040000fa
:0400140004030000e1
:020000040000fa
:04001800460300009b
:020000040000fa
:04001c00c406000016
:020000040000fa
:04002000c406000012
:020000040000fa
:04002400c40600000e
:020000040000fa
:04002800c40600000a
:020000040000fa
:04002c00c406000006
:020000040000fa
:04003000c406000002
:020000040000fa
:04003400660300005f
:020000040000fa
:04003800c4060000fa
:020000040000fa
:04003c00c4060000f6
:020000040000fa
:04004000c4060000f2
:020000040000fa
:04004400c4060000ee
:020000040000fa
:04004800c4060000ea
:020000040000fa
:04004c00c4060000e6
:020000040000fa
:04005000c4060000e2
:020000040000fa
:04005400480600005a
:020000040000fa
:04005800ec050000b3
:020000040000fa
:04005c00c4060000d6
:020000040000fa
:04006000c4060000d2
:020000040000fa
:04006400c4060000ce
:020000040000fa
:04006800c4060000ca
:020000040000fa
:04006c00c4060000c6
:020000040000fa
:04007000c4060000c2
:020000040000fa
:04007400c4060000be
:020000040000fa
:04007800c4060000ba
:020000040000fa
:04007c00c4060000b6
:020000040000fa
:04008000c4060000b2
:020000040000fa
:04008400c4060000ae
:020000040000fa
:04008800c4060000aa
:020000040000fa
:04008c00c4060000a6
:020000040000fa
:04009000c4060000a2
:020000040000fa
:04009400c40600009e
:020000040000fa
:04009800c40600009a
:020000040000fa
:04009c00c406000096
:020000040000fa
:0400a000c406000092
:020000040000fa
:0400a400c40600008e
:020000040000fa
:0400a800c40600008a
:020000040000fa
:0400ac00c406000086
:020000040000fa
:0400b000c406000082
:020000040000fa
:0400b400c40600007e
:020000040000fa
:0400b800c40600007a
:020000040000fa
:0400bc00c406000076
:020000040000fa
:0400c000c406000072
:020000040000fa
:0400c400c40600006e
:020000040000fa
:0400c800c40600006a
:020000040000fa
:0400cc00c406000066
:020000040000fa
:0400d000c406000062
:020000040000fa
:0400d400c40600005e
:020000040000fa
:0400d800c40600005a
:020000040000fa
:0400dc00c406000056
:020000040000fa
:0400e000c406000052
:020000040000fa
:0400e400c40600004e
:020000040000fa
:0400e800c40600004a
:020000040000fa
:0400ec00c406000046
:020000040000fa
:0400f0009c0300006d
:020000040000fa
:0400f400c40600003e
:020000040000fa
:0400f800c40600003a
:020000040000fa
:0400fc00c406000036
:020000040000fa
:04010000c406000031
:020000040000fa
:04010400c40600002d
:020000040000fa
:04010800c406000029
:020000040000fa
:04010c00c406000025
:020000040000fa
:04011000c406000021
:020000040000fa
:04011400c40600001d
:020000040000fa
:04011800c406000019
:020000040000fa
:04011c00c406000015
:020000040000fa
:04012000c406000011
:020000040000fa
:04012400c40600000d
:020000040000fa
:04012800c406000009
:020000040000fa
:04012c00ae0600001b
:020000040000fa
:04013000c406000001
:020000040000fa
:04013400c4060000fd
:020000040000fa
:04013800c4060000f9
:020000040000fa
:04013c00c4060000f5
:020000040000fa
:04014000c4060000f1
:020000040000fa
:04014400c4060000ed
:020000040000fa
:04014800c4060000e9
:020000040000fa
:04014c00c4060000e5
:020000040000fa
:04015000c4060000e1
:020000040000fa
:04015400c4060000dd
:020000040000fa
:04015800c4060000d9
:020000040000fa
:04015c00c4060000d5
:020000040000fa
:04016000c4060000d1
:020000040000fa
:04016400c4060000cd
:020000040000fa
:04016800c4060000c9
:020000040000fa
:04016c00c4060000c5
:020000040000fa
:04017000c4060000c1
:020000040000fa
:04017400c4060000bd
:020000040000fa
:04017800c4060000b9
:020000040000fa
:04017c00c4060000b5
:020000040000fa
:04018000c4060000b1
:020000040000fa
:04018400c4060000ad
:020000040000fa
:04018800c4060000a9
:020000040000fa
:04018c00c4060000a5
:020000040000fa
:04019000c4060000a1
:020000040000fa
:04019400c40600009d
:020000040000fa
:04019800c406000099
:020000040000fa
:04019c00c406000095
:020000040000fa
:04020800c406000028
:020000040000fa
:04020c00e402000008
:020000040000fa
:0402100026030000c1
:020000040000fa
:0402140004030000df
:020000040000fa
:040218004603000099
:020000040000fa
:04021c00c406000014
:020000040000fa
:04022000c406000010
:020000040000fa
:04022400c40600000c
:020000040000fa
:04022800c406000008
:020000040000fa
:04022c00c406000004
:020000040000fa
:04023000c406000000
:020000040000fa
:04023400660300005d
:020000040000fa
:04023800c4060000f8
:020000040000fa
:04023c00c4060000f4
:020000040000fa
:04024000c4060000f0
:020000040000fa
:04024400c4060000ec
:020000040000fa
:04024800c4060000e8
:020000040000fa
:04024c00c4060000e4
:020000040000fa
:04025000c4060000e0
:020000040000fa
:040254004806000058
:020000040000fa
:04025800ec050000b1
:020000040000fa
:04025c00c4060000d4
:020000040000fa
:04026000c4060000d0
:020000040000fa
:04026400c4060000cc
:020000040000fa
:04026800c4060000c8
:020000040000fa
:04026c00c4060000c4
:020000040000fa
:04027000c4060000c0
:020000040000fa
:04027400c4060000bc
:020000040000fa
:04027800c4060000b8
:020000040000fa
:04027c00c4060000b4
:020000040000fa
:04028000c4060000b0
:020000040000fa
:04028400c4060000ac
:020000040000fa
:04028800c4060000a8
:020000040000fa
:04028c00c4060000a4
:020000040000fa
:04029000c4060000a0
:020000040000fa
:04029400c40600009c
:020000040000fa
:04029800c406000098
:020000040000fa
:04029c00c406000094
:020000040000fa
:0402a000c406000090
:020000040000fa
:0402a400c40600008c
:020000040000fa
:0402a800c406000088
:020000040000fa
:0402ac00c406000084
:020000040000fa
:0402b000c406000080
:020000040000fa
:0402b400c40600007c
:020000040000fa
:0402b800c406000078
:020000040000fa
:0402bc00c406000074
:020000040000fa
:0402c000c406000070
:020000040000fa
:0402c400c40600006c
:020000040000fa
:0402c800c406000068
:020000040000fa
:0402cc00c406000064
:020000040000fa
:0402d000c406000060
:020000040000fa
:0402d400c40600005c
:020000040000fa
:0402d800c406000058
:020000040000fa
:0402dc00c406000054
:020000040000fa
:0402e000c406000050
:020000040000fa
:0402e400c40600004c
:020000040000fa
:0402e800c406000048
:020000040000fa
:0402ec00c406000044
:020000040000fa
:0402f0009c0300006b
:020000040000fa
:0402f400c40600003c
:020000040000fa
:0402f800c406000038
:020000040000fa
:0402fc00c406000034
:020000040000fa
:04030000c40600002f
:020000040000fa
:04030400c40600002b
:020000040000fa
:04030800c406000027
:020000040000fa
:04030c00c406000023
:020000040000fa
:04031000c40600001f
:020000040000fa
:04031400c40600001b
:020000040000fa
:04031800c406000017
:020000040000fa
:04031c00c406000013
:020000040000fa
:04032000c40600000f
:020000040000fa
:04032400c40600000b
:020000040000fa
:04032800c406000007
:020000040000fa
:04032c00ae06000019
:020000040000fa
:04033000c4060000ff
:020000040000fa
:04033400c4060000fb
:020000040000fa
:04033800c4060000f7
:020000040000fa
:04033c00c4060000f3
:020000040000fa
:04034000c4060000ef
:020000040000fa
:04034400c4060000eb
:020000040000fa
:04034800c4060000e7
:020000040000fa
:04034c00c4060000e3
:020000040000fa
:04035000c4060000df
:020000040000fa
:04035400c4060000db
:020000040000fa
:04035800c4060000d7
:020000040000fa
:04035c00c4060000d3
:020000040000fa
:04036000c4060000cf
:020000040000fa
:04036400c4060000cb
:020000040000fa
:04036800c4060000c7
:020000040000fa
:04036c00c4060000c3
:020000040000fa
:04037000c4060000bf
:020000040000fa
:04037400c4060000bb
:020000040000fa
:04037800c4060000b7
:020000040000fa
:04037c00c4060000b3
:020000040000fa
:04038000c4060000af
:020000040000fa
:04038400c4060000ab
:020000040000fa
:04038800c4060000a7
:020000040000fa
:04038c00c4060000a3
:020000040000fa
:04039000c40600009f
:020000040000fa
:04039400c40600009b
:020000040000fa
:04039800c406000097
:020000040000fa
:04039c00c406000093
:020000040000fa
:100400000f9420000e7f24000e01880000000000e1
:10041000000020000000e000020032000001200087
:100420002002880014000700a80207000000e00076
:1004300003003a0060932200010020000200370010
:100440000000200001002000810f70000100320038
:1004500014000700000020000000e000020032004d
:100460000000020000000000a62c020000000000b6
:100470000040da000000fe004440a900600b2000ac
:100480000000e0000300320000002000a00188000e
:100490004440a800000006008a1f78008b1f7800e7
:1004a0000000060091018800800478000000eb0045
:1004b0001a003700e284440032a0b4009905ba0063
:1004c000e284440032a0b4009906ba00e2844400f9
:1004d00032a0b4000006eb00476fde00fd07b2005b
:1004e000636ce10003003a00ebff07000000eb0043
:1004f0000a003700606ce10004003a00005deb0088
:100500008b05e900fdff3e00040037006168e10053
:10051000010032000086eb000b00070019c7ba008b
:100520001905ba000e04e00003003a000a00e000da
:10053000e0ff3a0000000600fe07b2009e018800be
:100540008a047800f5ff3700395dba008b05e900b1
:100550000c003200295dba008b05e900080032006a
:100560000c00e00003003a00e284440032a0b40032
:10057000f5ff370019ddba008b05e900faff3a00f4
:100580008904e800e184440032a0b40000000600c1
:100590007a2a040000000000482304000000000044
:1005a0006623040000000000620a0400000000004e
:1005b0008c0c04000000000000000400000000009b
:1005c0003a0d0400000000003600f800809fbe00d5
:1005d000829fbe00849fbe00869fbe000000fa007e
:1005e0008020a9000000eb00c21407000080fa0080
:1005f0004f03be004f02be004f01be004f00be00c1
:100600003600f900004006003600f800809fbe006a
:10061000829fbe00849fbe00869fbe000000fa003d
:10062000b91407008040a90010002000b114070091
:100630000080fa004f03be004f02be004f01be0013
:100640004f00be003600f900004006003600f800fa
:10065000809fbe00829fbe00849fbe00869fbe001a
:100660000000fa008060a90020002000a11407000b
:100670000080fa004f03be004f02be004f01be00d3
:100680004f00be003600f900004006003600f800ba
:10069000809fbe00829fbe00849fbe00869fbe00da
:1006a0000000fa008080a9003000200091140700ab
:1006b0000080fa004f03be004f02be004f01be0093
:1006c0004f00be003600f900004006003600f8007a
:1006d000809fbe00829fbe00849fbe00869fbe009a
:1006e0000000fa00404180000000e00002003200fb
:1006f00040418000000001009093200010407800ed
:100700008040e8009093200001487800809320000a
:1007100011c0b300014878008460a9000080fa008d
:100720004f03be004f02be004f01be004f00be008f
:100730003600f900004006003600f800809fbe0039
:10074000829fbe00849fbe00869fbe000000fa000c
:100750008a40a900c11080000008200000806000cd
:100760000000e0000800320018e2a9000828ef00ad
:1007700070408000200090008000eb0001087800ad
:100780000e28ef000d013700404080008000eb0094
:10079000b200200003002000820f5000838f580019
:1007a000fc003e00006001000b00370039003700fc
:1007b000750037009c003700f3003700c800370091
:1007c000d9003700f0003700db003700f1003700b8
:1007d00034003700500037000080200020009000d7
:1007e000620060000000e000f3003a00008020009a
:1007f00010009000704088000080200010009000e1
:10080000104078000ae8b700008020001000900037
:1008100010009000604088000080200010009000d0
:10082000e6004000008020001100980000802000b9
:100830009000900060912000808f500003003a00eb
:10084000008020000191200011009800008020000d
:10085000a00090000100a10021009800008020006d
:10086000900090000080200010007800808f5000e1
:1008700004003a0000802000a00090000110a000b9
:10088000210098001602a8002000200040408800a7
:10089000ca0037001622a80020002000404088002f
:1008a000c6003700c11080000000280000806000f2
:1008b0000000e0000800320000802000604090004e
:1008c0008040e80000802000614098004000200047
:1008d00004110700b9003700804080008000d1007b
:1008e000f00f2000008060009010880080408000a1
:1008f00061006000004078000004e0000300320066
:10090000b000200040408800ac00370030002000dc
:1009100040408800a9003700c11080000000280076
:10092000008060000000e00008003200008020002d
:10093000604090008040e800008020006140980006
:1009400040002000e71007009c0037001622a80096
:10095000804080004800de00e6006000000f2000bc
:100960000100700080408800804080000000a000ee
:100970008040880010c0b30012e8b70020002000bb
:10098000404088008d00370012c8bf00e14f500082
:100990000a0032006040800010007800804088002b
:1009a0006040800020009000a040880060408000ef
:1009b0002040900016e8b700010037001268ef00f1
:1009c00081408000f00f2000808f50000900360029
:1009d000804080004800de00e6006000000f20003c
:1009e0000100700090108800a000200040408800a6
:1009f00072003700804080009010880080408000a6
:100a000061006000004078000004e0000300320054
:100a1000500020004040880068003700300020006f
:100a20004040880065003700c110800000002800a9
:100a3000008060000000e00009003200008020001b
:100a4000604090008040e8000080200061409800f5
:100a500019e2a90050002000a2100700570037003b
:100a600016c8bf008080fb008100e900cf08de00cf
:100a7000814078000040e90016e8b7000104e0007a
:100a80001000320060408000660040006040880036
:100a90000ac8bf000040e9000ae8b7000ac8bf0062
:100aa0000004e00003003a00200020008d10070041
:100ab000420037001622a800200020004040880095
:100ac0003e003700a0408000904078008180fb000d
:100ad000911088000000e800a0408800370037002f
:100ae000c110800000002800008060000000e000cd
:100af0000900320000802000604090008040e80043
:100b00000080200061409800400020007510070020
:100b100019e2a900290037001662a8008000200011
:100b200040408800250037008000200040408800b9
:100b30001662a80021003700a040800081108000cc
:100b400081407800014878000000e800a04088005b
:100b500016c8bf000040e90016e8b70016c8bf007d
:100b60000004e0000400320016a2a900600020008a
:100b7000404088000200370016a2a8004810070075
:100b80001682a8000d003700200020005510070035
:100b90000a00370000802000604090008040e8009c
:100ba0000080200061409800600020004d10070088
:100bb0000000000001003700000000000080fa0083
:100bc0004f03be004f02be004f01be004f00be00eb
:100bd0003600f900004006003600f800809fbe0095
:100be000829fbe00849fbe00869fbe000000fa0068
:100bf0001041800000000100f1408000e0408000d2
:100c0000808f500002003a009580a900190037003b
:100c10008580a90010003700f040800090407800e7
:100c20008180fb00211188000000e800f04088006e
:100c3000f1408000b0922000808f500002003a0006
:100c400020922000f0408800f1408000e0408000c9
:100c5000808f50000600320011118000002020001b
:100c6000008060000000e000ebff32000100370070
:100c7000000000000080fa004f03be004f02be00db
:100c80004f01be004f00be003600f90000400600d4
:100c90003600f800809fbe00829fbe00849fbe0089
:100ca000869fbe000000fa00204180000000010085
:100cb0008560a9001e003700c0408000311180000f
:100cc0008140780001487800c140800030932000c6
:100cd000808f500009003200c04080008000e80092
:100ce000d0408000808f500004003200c04080005f
:100cf0000000e800c04088000d003700c1408000bf
:100d000030932000808f500007003a00d1408000cf
:100d1000b0922000808f500003003200b09220007b
:100d2000c04088000200370010c0b30020e8b700c0
:100d300010118000610060000000e000deff3a005a
:100d40000080fa004f03be004f02be004f01be00fc
:100d50004f00be003600f90000400600801f7800fa
:100d60000000fa0010118000620060000000e00046
:100d7000010032002222a9008c20a9000080fa0084
:100d80004f007800004006000040da000000fe003e
:100d90000a00fa0011002000b1bf9f00c0bf9f00f1
:100da0006a805700300807004fb897000080fa00ab
:100db000000006000a00fa0051002000b1bf9f00a9
:100dc000c0bf9f006a805700290807005fb89700de
:100dd0000080fa0000000600889fbe0080047800b2
:100de000f04980000000e00004003a000e00070017
:100df0000084eb000000e00008003500f8498000a6
:100e00000900e00005003200090044000600070068
:100e10000000e00001003d000084eb0008007800c5
:100e20004f04be0000000600800078000100e000d2
:100e300003003a0000002000f0498800000005008f
:100e40000080eb0002002000828f500002003e0074
:100e5000f14988000000eb00000006000a00fa00db
:100e6000200798003107980042079800be009000c4
:100e7000110798000000eb00000f78000c0037000d
:100e8000000000004a0e07000004a2000004e00079
:100e9000fcff3a001e009000104078009e00900079
:100ea0008100e80011079800210e07001e0fe800de
:100eb0004e0090009e007800808f5000f0ff3900b7
:100ec0004e0090000080fa000000060000000500bf
:100ed00003f0a200889fbe008a9fbe008c1f78008e
:100ee000b8000700bf0033006450e1004f0032003b
:100ef0006420e1005200320003826c0007003b00d6
:100f00000905d0000306d000820f54000c065d00d6
:100f100002003900020032008901780003067800df
:100f20008582550004003d000003fd008103fd00a3
:100f30008502ea008b854200840f720002003b00ac
:100f400060001000e08018006011b8000005eb00a0
:100f50007a28e1000a00390006007800c75ddd004c
:100f6000f707b200878075002d003700828171007d
:100f70000a017800610560008180d1000080d30003
:100f80008502e900f9ff3b00060440008784480021
:100f900002003b0060041400e0841c000988a300e8
:100fa000070032008a817100828171006101640052
:100fb0008904d1000884d3008b05e80017003700ae
:100fc0000978a30013003a000b00e000130034007e
:100fd0008b05e9000804440089844c000a4474002d
:100fe0000978a3000d003a000b00e0000700340070
:100ff0008b05e9000804440089844c0001003a0094
:101000000b0020000978a300f7ff32000001eb007d
:1010100002003700828171000a0178002e0007006b
:101020000cf0a70001f0a000770037006420e10079
:1010300002003a00838f6c00770033000801be0085
:101040000200be00700037000003be004800070029
:101050006011b8000470a70007f0a10007f8a30012
:1010600017003a006509b1000d0032000d0035008f
:10107000860220000628e100030035000300280056
:101080006000b800020005000000400081804800b8
:1010900002014900838149008502e900faff3a0014
:1010a00000000600f88f4200050034008100d100e6
:1010b0000080d3008502e800fcff3a000000060033
:1010c0006011b8008000eb00000005004f89de00d1
:1010d00082017800bc00370081002000618055004b
:1010e0000b003d000b00200061fe2f000100e1001d
:1010f0001d00340082817100610164008904d10007
:101100000884d3000000e800faff3a0071002000d4
:1011100061006400030070000200600009003200fa
:1011200061044400e0844c000988a50005003200f9
:101130008b05e8006808e10002003a008904d1004c
:101140000884d300f20f20000258e10005003d00a2
:10115000c75ddd00f907b2008980750008007800de
:10116000000006000bf827008b0078000000050047
:10117000c70ade00f107b200f50fb2000800320026
:10118000e1cf4200020032000170a00024000500ff
:10119000810f7000010032000408050044000500c2
:1011a000810f700002003a00140005008502e9007a
:1011b0000000400081c04800fcff3b000170a0001f
:1011c000240005000004be00e9ff07000003be0084
:1011d0000405be000200be00e5ff0700844f750055
:1011e000000006000200be006450e1000500360069
:1011f0006420e100020036000968a30001003a0003
:101200000800be000160a0004f0678004f05be0038
:101210004f04be0000000600f0ff2f00f1ff270082
:10122000f9ff3700889fbe008a9fbe008c1f7800a0
:10123000e4ff0700ebff330003866c006450e1001d
:10124000240032006420e100270032006150e100f8
:10125000220032006120e100210032008b85420033
:10126000eb07b1000134b800003ab80008044200ae
:1012700089844a00013ab8000030b80088804000f4
:1012800009014a000400330000004000818048004a
:10129000020149008b05e900c909dd0083017000e6
:1012a0000100320013002000c814de004814dd00e5
:1012b0004709de001200b200c808de000884700092
:1012c00085ff070001f0a1000cf0a70001f0a000cd
:1012d000cdff37006120e100cfff32000801be00e2
:1012e0000200be00f7ff37006150e100fcff3a004a
:1012f000c9ff3700889fbe008a9fbe008c1f780000
:101300000004be009aff07000478a30026003a00fc
:101310006120e1002500320009f8a30025003a0011
:101320006420e10021003200f507b1000508a300a8
:101330000200320000004000818048006044b80094
:1013400003102000020020000000400081804800bf
:101350000805440089854c000a0541008b85490039
:101360000a0550008b855800030033000a00be00b8
:1013700002047400838474008301d1000281d300cd
:10138000830f7100f0ff3a008904d1000884d30074
:101390006001490082017800c1adde00fb07b000aa
:1013a0004dff070098ff37000960a0000800be004d
:1013b00095ff37001202200052418800f0ff2f00f5
:1013c000f1ff270090ff3700881f780003047800a2
:1013d0000300e00007003d0060001000e0801800fe
:1013e00060011900e081190002003b0001f02d00ae
:1013f000030037000400070008f0a70001f0a00078
:101400004f04780000000600889fbe008a9fbe003f
:101410000082700004027100048271002600320014
:101420000004be000200be006011b8006b0920007d
:10143000950220000182cf000a0039000541b10069
:101440000082cf00070039000541b1000982cf00ba
:10145000040039000541b1000882cf0001003900c5
:101460000541b10005425200120032000a003b0063
:1014700082817100610164008100d1000080d3008d
:101480008984d3000884d3008b05e8000442e80077
:10149000f7ff3a00070037000804440089844c0035
:1014a00000004800818048008b05e9000442e90003
:1014b000f9ff3a0008ff07004f05be004f04be00c9
:1014c00000000600889fbe0000047800010078003c
:1014d000820478008801780009017800110020005a
:1014e0000e000700890f5000010032000004eb00dd
:1014f000080078004f04be00000006000000fa005b
:10150000e88157004fb997004185200020a62000b0
:10151000220207000080fa0000000600889fbe003b
:101520008a9fbe008c9fbe008e1f78000006780048
:101530000104780002007800830478000881b90073
:10154000020778000200e000420032000800e000dc
:101550004100320082057800c900900069009000c7
:10156000808f500004003900090078005000070007
:101570000000e00029003500004020001900600054
:101580000a0032000b017800a10020000c00780056
:1015900036000700800678000d00e00006003200eb
:1015a000610516000a854600040037000b05780027
:1015b0008006eb00010037000b0578004900900021
:1015c000e9009000808050008a8f500002003100b6
:1015d000010578008006eb000a0178008c00780095
:1015e0002c0007008a855500490090000a00400041
:1015f000c00498000d00e0000400320009007800eb
:10160000d50007000000e00004003a000b00e000f5
:10161000020032000a064600cfff3700008020009b
:10162000190060000200320009007800ca000700bb
:1016300000c0200019006000020032004900900044
:10164000e00498008b055700110009008885d80038
:10165000010037000000eb004f0778004f06be0086
:101660004f05be004f04be00000006000300370017
:10167000b0cf1000050032000201e90080017800bf
:101680000200e000faff3a000000050003007800c5
:10169000000006008001780002003700b159780090
:1016a0000201e9000200e000fcff3a000000060031
:1016b000889fbe008a1f780000047800c800900050
:1016c000680190000000eb00828f50003c00390060
:1016d000180078002200290002016000e20f51008a
:1016e00007003200012020000000e000010035006a
:1016f00001202400008c70000080eb0030003700d7
:101700000200260002006000820f500009003a002b
:1017100038009000808f50000600390008007800e3
:101720008d000700800078000080eb000100e000e1
:1017300023003a001805780000c020000000650072
:1017400018003a00a8049000600220000800400041
:10175000808f540013003a00002020000b03070084
:10176000200498000000e00005003a0029049800d9
:10177000490498008904e8003904980008003700fb
:101780000a60a0000a0c78004004980001202000a4
:101790008080400031049800400c9800500c980064
:1017a0000c000700280090005004980038009000ba
:1017b0006004980000002600180c70000000eb0088
:1017c0004f0578004f04be0000000600c0c820008e
:1017d0009c003700881f7800a89320001804e000c0
:1017e00003003a00f9ff070020c0b300004c780066
:1017f0004f04780000000600889fbe0000047800b7
:1018000008007800540007008004780000042000dd
:1018100018006000020032002800900076020700e5
:101820000000eb0020049800384090000004e00025
:10183000050035000000fb0055fd07000000e0003a
:10184000010032008084eb00181090000000e000de
:101850000800320057fd07000000e00001003200e0
:101860008084eb0018109000630207000000eb007a
:1018700010149800000820001800600015003200c5
:101880000001eb006000b800438a20000202d00093
:1018900063027a00880f520005003a000000400001
:1018a00081804800008041000008eb0006003700fe
:1018b00061004000e08048000201e800e80f5000ad
:1018c000e08f5800f0ff3a00080078004a02070055
:1018d0000e003700000c780000c0eb003044980088
:1018e0006002200008004000200498004004980096
:1018f00050049800400c980060049800500c980028
:101900007004980076004400000c980009007800ec
:101910004f04be0000000600881f78000004eb00a2
:101920006140b800e2ff2f00f3ff2f00ac05070075
:10193000228b2000620078000000e00001003200ed
:10194000adff07000804e800e80f5400f4ff3a0078
:101950004f04780000000600889fbe000004780055
:101960000800e0000f003a008004eb000904780052
:101970008800d000408a2000610078000000e0006c
:1019800004003200f4ff07000000e00001003d0009
:101990008084eb000804e800e80f5400f4ff3a00ec
:1019a0002500370000002200180060008004eb00d2
:1019b00021003200a80490000f00370009015100f7
:1019c000384090000000fb008900780023fd0700ec
:1019d0000000e00007003c00280090004004980050
:1019e00060049800500c98001890a0008084eb00d0
:1019f000110037008084440048019000828f540019
:101a0000eeff39002800900040049800980078000c
:101a100002c020000281600001003a0038009000fe
:101a200001e8a300020032006004980001003700c2
:101a3000500c98008004eb00090078004f04be00b1
:101a400000000600010020000100e0000800320054
:101a5000010080000100e000050032008100e90083
:101a6000010088008100d0000200800000b17800f1
:101a700000000600889fbe00000478000203be003c
:101a800081047800080278008901780012002000a3
:101a90000600be0088040700890f500001003200d4
:101aa0000004eb00080078004f04be0000000600b0
:101ab0006800fa00889fbe008a9fbe0080047800fc
:101ac000010478008205780003057800840078001e
:101ad00000f92f000f00400075040700d98f9f0008
:101ae000fb8f9f000000eb00a09f9f00e88f9f00ee
:101af0009a84fb000904fb008904ea00cf4cde0055
:101b000050022000800f54000d003200e18f54007d
:101b10000b003a00090178008a0078007f8897005e
:101b2000df89970003000100f08f9f000000e000b4
:101b3000950032002f9897000000e800a09f9f00ba
:101b40000905450050022000800f540004003200b7
:101b50000800e000e6ff3a002f9897008b0037005e
:101b60000000eb00809f9f00f0979f00e0979f0090
:101b7000d0979f00c0979f00b0979f000700370045
:101b8000a19020000100500000004000e18f2000e3
:101b900061007800cf98970001007000c09f9f00ff
:101ba0000a04780008057800ba4478008900fb0030
:101bb000a09020001f0207000000e000f0ff3a00a4
:101bc000a1c2b30081cf54000e003a008f88970065
:101bd0000180e900808f9f0010007800b09f9f0077
:101be0000000e00005003d000000ea00b09f9f00fb
:101bf0004f9897000020a000c09f9f000804e800b5
:101c000010003700b09f9f00880078000000eb00b4
:101c100005003700f3ff2700830f50000200320059
:101c20006a02b900040041000104780088007800cd
:101c30003101fb000203b100e90f5100f5ff36004e
:101c4000b09f9f00e0c2b300984f10000200320026
:101c50000080eb0019003700a0c2b300d84f10007d
:101c600007003a008f8897000180e900808f9f006d
:101c700010007800909f9f000804e80010003700d3
:101c80000000eb00909f9f0088007800050037005f
:101c9000f3ff2700830f5000020032006a02b900f0
:101ca0000400410001047800880078003101fb0045
:101cb0000203b100e90f5100f5ff3600909f9f002d
:101cc000984478008900fb00608f2000d90107004c
:101cd0000000e000020032000804e80001003700c4
:101ce0008044eb00a97f9f0080c6b30080cf5400e2
:101cf00006003a0098cf140010003a0066405000e9
:101d0000a07f9f000804e8000c003700c0c6b300a5
:101d100080cf540009003a0098cf140007003a0021
:101d200067404000d84f100002003a006e4050005b
:101d30000100370010c7b300a07f9f001801fb000f
:101d4000c3fb2f008f81410001f92f008f804000dd
:101d500020f92f000f004000150007000000e000f0
:101d600009003a00c1fb2f008f80400020f92f00ae
:101d70000f004000f40207000000e0000200350000
:101d80000805e8005aff37000080eb004f05be0051
:101d90004f04be000080fa00000006000302780035
:101da0008201780001017800a1d3200040ff3700b4
:101db000889fbe008a9fbe00e4c6b300844f5100d6
:101dc000be00320010003c006b425200844f5100b4
:101dd0001800320005003c0054c2b300844f51008b
:101de000f600320084c5b3000f00370044c6b300cc
:101df000844f51001400320065424200844f51006c
:101e0000f1003a001000370004c7b300844f5100be
:101e1000dd0032005600350065424200844f51001b
:101e20005300320063424200844f5100e6003a0002
:101e30004f0037001181e90082087800a008900067
:101e400012417800de003700006a9000c5c6b3007a
:101e5000854f520007003a009102780064825200d8
:101e6000840878001402be004fabde0086037800c1
:101e70001400370015c7b300854f520003003a0025
:101e8000110478006802540005003700a5c6b300ad
:101e9000854f520006003a00910478006882540091
:101ea000840878005403be004402be0005003700d9
:101eb0001182e9008408780014027800cfa2de00c5
:101ec000612bb9000498be000690be0080689000a7
:101ed00088c6b30088cf50000d00320028c6b3007a
:101ee00088cf500004003a000402fb00cfa2de00bd
:101ef000612bb9000800370048c7b30088cf5000f5
:101f0000030032006644440088cf500004003a00c9
:101f1000cfa2de00612bb9000498be000690be007f
:101f20003002be002003be00a0089000e00f520067
:101f3000e08f5a00e00f5b00e08f5b0002003d0085
:101f4000d4c2b30008003700301290000418a30078
:101f500002003200b4c2b300030037000408a3003b
:101f60005100320004c2b30084f178004c00370005
:101f7000006a9000c5c6b300854f520008003a00c1
:101f80001105780064025500840878001404be002e
:101f90006055b8000802be000a03be0014003700f6
:101fa00015c7b300854f520003003a009104780032
:101fb0006882540005003700a5c6b300854f520063
:101fc00006003a0011057800680255008408780080
:101fd0005403be004402be00050037001182e90030
:101fe00084087800140278008002eb006033b800a7
:101ff0000498be000690be008068900088c6b300ba
:1020000088cf50000d00320028c6b30088cf5000a2
:1020100004003a000482fb008002eb006033b80049
:102020000800370048c7b30088cf500003003200d3
:102030006644440088cf500004003a008002eb0060
:102040006033b8000498be000690be00b010900047
:102050000138a300140032003002be002003be008d
:10206000e00f5200e08f5a00e00f5b00e08f5b0052
:102070000d00320081c7b300814f510003003200d0
:1020800081c5b300814f510007003a00a0089000bd
:1020900004c3b30084f178008100e80082f1780085
:1020a0008100e80021089800a0089000818141008b
:1020b00073009800824078003e00370080699000ed
:1020c000c4c6b3001181e90084cf51002200320060
:1020d0000a003c006442520084cf510025003200c7
:1020e00004c2e80084cf510013003200684252005d
:1020f00084cf51001e003a000a00370044c7b300e5
:1021000084cf51001b0032006642420084cf510050
:10211000180032006942520084cf510014003a0086
:102120000500370082087800920078002060900057
:10213000804878002c0037008208780092007800f0
:1021400010129000cfa2de00612bb9008498be006f
:102150008690be0024003700820878009200780044
:1021600010119000cf91de008288be001e00370063
:102170001181e90082087800920078001010900028
:1021800080087800180037001181e9008208780083
:1021900012027800cfa2de00612bb9000498be00c5
:1021a0000690be00a0089000818141007300980055
:1021b00081c7b300b50007000b003700a0089000ee
:1021c00082f1780006003700a0089000818141006c
:1021d0000204e00001003a0052c2b30082497800d4
:1021e0008100e800210898000000eb004f05be00c8
:1021f0004f04be00000006000000e0002f00320087
:10220000c0017800e38f51002c0036000308a300c2
:102210002a003a00b14980000100e00002003200cb
:10222000810f50000400310011009800b04988006f
:102230001600370082007800110190000200e000d3
:1022400002003200800f5100faff390011027800bd
:1022500084824000850f500018003900808f5200a2
:1022600003003a00830842000100780007003700ad
:102270000200e0000300320083014000830f5100a0
:102280000e00390012009800900098009000900015
:102290000100e0000900320010014000828f500070
:1022a00006003a00429320000009eb00100178007c
:1022b00011084100910090001100980000000600f4
:1022c000889fbe0000047800a14980000100e00062
:1022d00002003200010078000d003700b149800093
:1022e0006093200004003700910f54002500360051
:1022f0000180e800910090000100e000faff3a0040
:1023000010003700920f54001e0036000280e800d3
:10231000100178000200e000faff3a001101780095
:10232000b14980006093200004003700910f5400f1
:10233000140036000180e80091009000828f500068
:10234000faff3a00e9498000888f5400010031000b
:102350008804780009007800420007000000e000cf
:1023600004003a00888f5400050032008904d1002f
:10237000f5ff3700091878009fff0700d2ff3700ec
:102380000000eb004f04be0000000600881f78002c
:10239000630440000800a1008000eb00800f54009f
:1023a00021003600e30f540001003e0048002000e9
:1023b00008007800c2ff07008000eb000000e0008a
:1023c000190032009000780091017800648151007a
:1023d000880f5100030031001101900002087800bd
:1023e0000700370008814000020878009101900042
:1023f0001301980010017800110914008808780072
:10240000100178000000eb000200e0000400320040
:10241000920190000300e000010032000280e80019
:10242000a04988008180e800010078004f0478000e
:1024300000000600020037000304e000060032003e
:102440000001780002007800b041780081cf51008f
:10245000f9ff3a00010037000001eb0002007800ac
:1024600000000600800078000000eb000100e000a2
:10247000050034000100780057fa0700e10f400022
:1024800001003a000000eb0000000600fc87470056
:10249000889fbe008a9fbe008c9fbe008e1f780062
:1024a0000006780080c5b30080cf50000a003200db
:1024b0007740400080cf50000a0032006940400061
:1024c00080cf50000b003200508c200080bf9f0056
:1024d000ae0020000a003700428b200082bf9f0020
:1024e00006003700538c200083bf9f008e00200021
:1024f00003003700548c200084bf9f000e01200091
:102500003c02be002c03be000605be000404be0053
:1025100040c6b30080cf5000030032006540400049
:1025200080cf50000b003a00e00f5200e08f5a00bd
:10253000e00f5b00e08f5b0006003d006000b8002c
:102540006011b80004045000858458000605590045
:1025500087855900e80f5700040032004000200032
:10256000f00f570038003a0001003700300020001b
:10257000e00f5400e08f5c00e00f5d00e08f5d0035
:1025800004003a008c1090008d0120000100e00052
:10259000060032008e00e900888060008fba970044
:1025a000e5c07800f1ef9f007d01200080007800f9
:1025b0008100e900050033008b05d1000a85d300b6
:1025c0008984d3000884d300f9ff3700089ebe0039
:1025d0000a96be00120037008d06e9008e00e90061
:1025e000848060000fb99700e2c1780082fd2f005f
:1025f0000f01410003f17e00800078008100e900b6
:10260000050033008783d1000683d3008582d30081
:102610000482d300f9ff3700049ebe000696be0078
:102620003c02be002c03be00e00f5200e08f5a00b7
:10263000e00f5b00e08f5b008b0034000d00e000da
:10264000e5ff3c00880037000c68900081c6b300ad
:10265000814f50000b00320006003c000004e000f7
:1026600008003200e6c05000814f50004e003a0092
:1026700004003700c1c6b300814f50004a003a0041
:10268000210037000800e00004003a000c10900020
:102690008d0120000000e00006003200110009005a
:1026a0000e84d8000fb99700e2c07800f1ef9f00c8
:1026b0007d012000110009000e84d8000a003700b7
:1026c000110009000e04d8008d06e9000e81b90042
:1026d000020454008fb8970061417c0081fd2f00f7
:1026e0008f80400082f07e00000478000800e00047
:1026f000020032000d00e000f1ff3c00cfc4de001c
:10270000614db90025003700e00f5400e08f5c00f8
:1027100004003a000c1090008d0120000000e00041
:10272000070032006171b9000800be0029020700ed
:102730008fb99700e3417800f3ef9f007d012000ff
:102740006171b9000800be00120207000b003700db
:102750006171b9000800be00ff0107008d06e900a5
:1027600000f1b900020454000fba9700e4427c0063
:1027700084fd2f000f02420005f27e000004be001f
:10278000e00f5000e08f5800020032000d00e00022
:10279000efff3c004fcdde008a057800089ebe00aa
:1027a0000a96be0030003700e00f5400e08f5c0056
:1027b000e00f5d00e08f5d0004003a000c10900017
:1027c0008d0120000000e000090032006172b900b4
:1027d000612bb9000800be000a01be00a602070076
:1027e0000fba970064427800f4ef9f007d0120004b
:1027f0006172b900612bb9000800be000a01be0079
:10280000960207000d0037006172b900612bb90014
:102810000800be000a01be009b0207008d06e90009
:1028200000f2b900040454008fba970065427c009e
:1028300085fd2f008f82420084f27e00009ebe0044
:102840000296be003c04be002c05be00e00f540002
:10285000e08f5c00e00f5d00e08f5d00020034005f
:102860000d00e000e8ff3c00e80f570010003a00c0
:102870003c1090000038a3000d003200f78f560086
:1028800006003e0085fd2f008f824200e5c07e00dd
:1028900000c3b30080cf5000050032008d06e90070
:1028a00002c3b30081fd2f008f80400082f07e00c4
:1028b00078811600420e98007c00900083fd2f0066
:1028c0008f8141008d80410072fb07004c08900011
:1028d0008c109000810f500006003d0000805000d9
:1028e000300e98003c1090000040a1003016980077
:1028f0000f0037000100e0000d003d00bc1090000b
:10290000f4806000f08f500009003a002c11900014
:10291000ac089000810051003c099000828050007a
:10292000008050004240a90001003400300e9800a1
:102930004f0778004f06be004f05be004f04be0093
:10294000cf01b100000006000400fa00889fbe001d
:102950008a9fbe008c1f7800000478000106780072
:10296000a814900028089000808454003808900033
:1029700080845400480890008084540058089000d7
:102980008084540068089000808454007808900087
:10299000808454000002220090bf9f0000032300a7
:1029a000a0bf9f00381090000028a30015003a0037
:1029b0000900e00013003400090578008a0578005a
:1029c000e20f5500010036002b002000c8019000e6
:1029d0000b017800ee8057006800900003000100b2
:1029e000600498000000e000aa0032001810900077
:1029f0000b004000101498000b0555004240a90040
:102a0000eeff3c00280990000200e0000c003400ba
:102a1000c80190008c00780068009000030001005d
:102a2000600498008080eb000000e0009a00320013
:102a30009810900028089000008040001014980022
:102a4000380d90000a00e000110034008a0578007b
:102a5000e20f5500010036002b002000c801900055
:102a60000b017800ec805700680090000300010023
:102a7000600498000000e00086003200181090000a
:102a80000b004000101498000b055500edff3700b7
:102a900008699000c808900050c6b300804f5100ec
:102aa00008003a000100e0001500340058029000d0
:102ab0000809900098099000680090000400010047
:102ac000070037000100e0000d003400c80190004d
:102ad00001017800f80090006800900003000100f8
:102ae000600498008080eb000000e0006a00320083
:102af0009810900048089000008040001014980042
:102b0000580d90000a00e000110034008a0578009a
:102b1000e20f5500010036002b002000c801900094
:102b20000b017800ec805700680090000300010062
:102b3000600498000000e000560032001810900079
:102b40000b004000101498000b055500edff3700f6
:102b5000086990006808900051c6b300814f510089
:102b60000d003a000000e0001c00340078019000e5
:102b7000c8089000010141006111b800828fd200a5
:102b80008381d20058029000800078006800900095
:102b900004000100090037000000e0000f003400cd
:102ba00078019000c808900081004100c8019000a1
:102bb00000017800680090000300010060049800a4
:102bc0008080eb000000e00033003200981090009d
:102bd000680890000080400010149800780d900064
:102be0000a00e000110034008a057800e20f550069
:102bf000010036002b002000c80190000b01780076
:102c0000ec80570068009000030001006004980009
:102c10000000e0001f003200181090000b00400080
:102c2000101498000b055500edff37003810900088
:102c30008000eb000028a300170032000900e0002c
:102c40001500340009057800e28f540001003600b9
:102c50002a002000c80190000a017800ee80570089
:102c60006800900003000100600498000000e0008c
:102c700008003200181090000a004000101498005c
:102c80008a8454004240a900eeff3c008000eb0023
:102c9000010037008080eb00010078004f067800cb
:102ca0004f05be004f04be000080fa000000060081
:102cb0000108780000000600e6874700889fbe00f4
:102cc0008a9fbe008c9fbe008e1f780082bf9f002f
:102cd00004047800029ab900f4b79f000400e000f1
:102ce000590032000fb997000200e000570032008f
:102cf0000006be0004077800c8009000680090003d
:102d0000808f5000040039000800780068fa07003e
:102d10000000e0003b00350000402000180060008b
:102d20000a0032008e017800a20020000c00be00d4
:102d30006e0007000005be0000807500070032002d
:102d40008c0455008904e800050037008e047800e3
:102d50000a0020000b002000010037008e047800dc
:102d6000480190006800900002005000890f500058
:102d700003003100800478000a0020000b002000ce
:102d80006111b800828fd2008381d20009027800dd
:102d90000c00be00380007000907570048009000eb
:102da00009004000400498000a85750004003200c4
:102db00008007800e8fa07000000e00011003a007f
:102dc0000e00e0000f0032006148b800808fd20092
:102dd0008180d2000000780000f0a1008c01d000ba
:102de0000001d000028641004220a80081864e00ea
:102df0004200a9004220ae004200a8000c86d30089
:102e0000bdff370000802000180060000200320083
:102e100008007800d0fa070000c020001800600009
:102e200002003200c8019000630498007fb0970050
:102e30000e0750000fb99700110009000287d80053
:102e400080017800010037008001eb00030078006a
:102e50004f0778004f06be004f05be004f04be006e
:102e60006f00b1000000060000c0da00000006009c
:102e700000c0da00000006003400f8000203be00c3
:102e8000820270008502720002f0a60000f0a60027
:102e90008100e800a10188001500b200080032009e
:102ea000105978000402e9000d0032006100400072
:102eb000fbff39003420ec0000002800f8ff370049
:102ec000101978000482e900050032006200400019
:102ed000fbff39003420ec0000002800f8ff370029
:102ee0003400f9000601be00000006000300e00007
:102ef00007003200a5018000a1018800104278007f
:102f0000a50188000402fb00820f5200110032006c
:102f10008301e900a5018000a1018800104278002a
:102f2000a50188000404e0000800320000027800d7
:102f30001000b00000026a004260af0000f0a00084
:102f40000482d2000180b000e8ff370000002000ba
:102f50000100200000000600839f68000100e000df
:102f600002003d0060001000e08018000300e00057
:102f700002003d0060011100e0811900050007001a
:102f80004f00e00002003b0060001000e0801800ed
:102f9000000006006022b800060220000000d000f9
:102fa0008180d2000482d2008582d2000000a0007d
:102fb0000202520083825a000300310002024200e2
:102fc00083824a000000a1000603e900f3ff3a00f3
:102fd00000000600efff07000400be00000006002e
:102fe000020ab900001bb9000200b80081004200cb
:102ff0008100430000000600889fbe008a9fbe003b
:1030000030044200b0844a0030054b0090854b00ec
:103010006000b1000898be000a90be000440e100c4
:1030200005c8e10006d0e10007d8e1000200310048
:10303000680040001008e8004f05be004f04be00c5
:1030400000000600889fbe008a9fbe003004be00bc
:103050002005be000418540005985c0006185d00a9
:1030600007985d00110020000440e10005c8e10060
:1030700006d0e10007d8e100010039008000eb0034
:10308000108810004f05be004f04be00000006006f
:103090001200fa00889fbe008a9fbe008c9fbe006f
:1030a000e0b79f00f1b79f0082bf9f0093bf9f00d2
:1030b0000605be000404be000000eb00d0b79f0070
:1030c000c0b79f00b0b79f00a0b79f0090b79f0008
:1030d000000678005fb19700cfb0970082014100f1
:1030e0003fb097000200e00004003d0037000700f9
:1030f0007e805700c0ff0700030037003300070041
:103100007e805700cfff0700dfb697000d00e0007c
:103110000c0035006fb29700ffb297000fbb97000d
:103120009fbb970010002000010020006011b80034
:1031300000027200818272000203730083837300b5
:103140001b0007000c06e80001042000810f560058
:10315000e0ff3a000d00e00004003d000802be0060
:103160000a03be007e805700a3ff07005fa89700f8
:103170000000e00005003a001fb29700afb29700d0
:103180003fb39700cfb39700090007006fb09700d7
:10319000ffb097000fb997009fb997004f06be0088
:1031a0004f05be004f04be000080fa00000006007c
:1031b0000100070000000600a4b79f00b5b79f00fc
:1031c000c6b79f00d7b79f00000006004f09de007a
:1031d00082817100b3b79f004f01de008180400003
:1031e00082807000a1b79f008fb097004f09de006a
:1031f000000040000200700090b79f007fa8970079
:103200004f01de00818040008280700081b79f0006
:103210000d0007004f3ade0000004000040070007f
:10322000f0af9f00080007000402420085824a00b8
:1032300006034b0087834b00dfff07000802be0038
:103240000a03be00000006002fb29700bfb297002d
:103250004fb39700dfb3970000000600881f780087
:1032600018002000881f780089ff07008f87e90079
:103270004f04780000000600801feb0084ff070069
:103280008f87e90000000600889fbe008a9fbe006d
:10329000e00f5000e08f5800e00f5900e08f590018
:1032a0000c003d006044b8006055b80000005400b8
:1032b00081805c0002015d0083815d0018002000b8
:1032c0001500070008003d00180007000004eb008f
:1032d000050037000004eb000f00070002003d006e
:1032e0001200070018002000dcff07000800e000c3
:1032f000060032006022b8006033b80000005200bf
:1033000081805a0002015b0083815b004f05be0093
:103310004f04be0000000600e00f5200e08f5a008c
:10332000e00f5b00e08f5b00000006006044b80027
:103330006055b8000402540085825c0006035d00fd
:1033400087835d0000000600889fbe008a9fbe0044
:103350008c1f7800e00f5000e08f5800e00f5900fc
:10336000e08f59000d003d006044b8006055b80082
:103370000000540081805c0002015d0083815d00db
:103380001c0020000820e10009a8e1000ab0e100cb
:103390000bb8e1000d003d00080037000006eb000f
:1033a000e00f5200e08f5a00e00f5b00e08f5b00ff
:1033b00006003d006044b8006055b80004025400a7
:1033c00085825c0006035d0087835d00aaff07001d
:1033d0000c00e000060032006022b8006033b80044
:1033e0000000520081805a0002015b0083815b0073
:1033f0004f0678004f05be004f04be0000000600d7
:020000040000fa
:10340000476900006120000074720000692000001c
:10341000646f00006e6700002064000069650000b2
:103420006e2000007068000061200000256400002c
:10343000206c0000613a000020250000642000009c
:103440000a0d0000004700006961000020740000c0
:103450007269000020640000696500006e200000b1
:1034600061700000207000006861000020250000ed
:10347000642000006c6100003a2000002564000018
:10348000200a00000d0000004769000061200000d4
:103490007472000069200000636f00006e67000016
:1034a0002073000075610000742000007068000047
:1034b0006120000025640000206c0000613a0000db
:1034c00020250000642000000a0d000000470000d5
:1034d0006961000020740000726900002063000030
:1034e0006f6e0000672000007375000061740000bb
:1034f00020700000686100006e2000006b68000012
:10350000616e00006720000070680000612000000c
:1035100025640000206c0000613a000020250000b6
:10352000642000000a0d00000047000069610000ef
:103530002074000072690000204300006f730000d7
:1035400020500000686900002070000068610000e1
:1035500020250000642000006c6100003a2000007b
:0c35600025640000200a00000d0000009f
:020000040000fa
:10356c000200fa000040eb00004f780014c0b300da
:10357c00d1c1b30052002000030020000040eb003a
:10358c00bb01070014c0b300e1c1b300020320006b
:10359c00030020000040eb00b501070034c0b3006d
:1035ac0081c1b300021c2000030020000040eb008e
:1035bc00af01070014c0b30031c1b3006011b800f3
:1035cc000040eb00aa01070014c0b30071c1b300a6
:1035dc0002042000030020000040eb00a4010700bf
:1035ec0014c0b30061c1b300c20920000300200065
:1035fc000040eb009e01070014c0b30041c1b300b2
:10360c006011b8000040eb009901070024c0b30022
:10361c0031c3b30082ff2f00f3ff2f000040eb00fb
:10362c009301070024c0b30041c3b30042fd2f0037
:10363c00f3ff2f000040eb008d01070024c0b30006
:10364c0041c3b30042ef2f00f3ff2f000040eb000b
:10365c008701070024c0b30061c3b30092012000ae
:10366c00030020000040eb008101070024c0b300e0
:10367c0071c3b30092012000030020000040eb0056
:10368c007b01070024c0b30081c3b300920120006a
:10369c00030020000040eb007501070024c0b300bc
:1036ac00a1c2b30042002000030020000040eb0048
:1036bc006f01070024c0b300b1c2b3004200200068
:1036cc00030020000040eb006901070024c0b30098
:1036dc00c1c2b30042002000030020000040eb00f8
:1036ec006301070024c0b30001c3b30042002000f3
:1036fc00030020000040eb005d01070024c0b30074
:10370c0011c3b30042002000030020000040eb0076
:10371c005701070024c0b30021c3b30042002000ae
:10372c00030020000040eb005101070024c0b3004f
:10373c00d1c2b3006011b8000040eb004c0107008f
:10374c0024c0b300e1c2b3006011b8000040eb002c
:10375c004701070024c0b300f1c2b3006011b800e8
:10376c000040eb004201070024c0b300f1c3b300da
:10377c0062ff2f00f3ff2f000040eb003c0107001d
:10378c0024c0b30001c4b30062ff2f00f3ff2f006d
:10379c000040eb003601070024c0b30011c4b30095
:1037ac0062ff2f00f3ff2f000040eb0030010700f9
:1037bc0024c0b30091c3b3002205200003002000f5
:1037cc000040eb002a01070024c0b300a1c3b300e2
:1037dc0022052000030020000040eb00240107001c
:1037ec0024c0b300b1c3b3002205200003002000a5
:1037fc000040eb001e01070024c0b300c1c3b3009e
:10380c00a29c2f00f3ff2f000040eb0018010700d3
:10381c0024c0b300d1c3b300a29c2f00f3ff2f0030
:10382c000040eb001201070024c0b300e1c3b30059
:10383c00a29c2f00f3ff2f000040eb000c010700af
:10384c0010c0b300004f7800a900370040062000dc
:10385c00e307070014c0b300d1c1b300520020002d
:10386c00030020001e4078000101070014c0b300c3
:10387c00e1c1b30002032000030020001e407800c9
:10388c00fb00070034c0b30081c1b300021c200050
:10389c00030020001e407800f500070014c0b300a0
:1038ac0031c1b3006011b8001e407800f000070071
:1038bc0014c0b30071c1b300020420000300200047
:1038cc001e407800ea00070014c0b30061c1b300c9
:1038dc00c2092000030020001e407800e40007000d
:1038ec0014c0b30041c1b3006011b8001e40780091
:1038fc00df00070024c0b30031c3b30012ff2f0058
:10390c00030020001e407800d900070024c0b3003b
:10391c0041c3b30012ff2f00030020001e407800ab
:10392c00d300070024c0b30041c3b30012ff2f0023
:10393c00030020001e407800cd00070024c0b30017
:10394c0061c3b300920f2000030020001e407800da
:10395c00c700070024c0b30071c3b300920f20004e
:10396c00030020001e407800c100070024c0b300f3
:10397c0081c3b300920f2000030020001e4078008a
:10398c00bb00070024c0b300a1c2b3007202200028
:10399c00030020001e407800b500070024c0b300cf
:1039ac00b1c2b30072022000030020001e40780058
:1039bc00af00070024c0b300c1c2b30072022000e4
:1039cc00030020001e407800a900070024c0b300ab
:1039dc0001c3b30062022000030020001e407800e7
:1039ec00a300070024c0b30011c3b300620220007f
:1039fc00030020001e4078009d00070024c0b30087
:103a0c0021c3b30062022000030020001e40780096
:103a1c009700070024c0b300d1c2b300720220008b
:103a2c00030020001e4078009100070024c0b30062
:103a3c00e1c2b30072022000030020001e40780097
:103a4c008b00070024c0b300f1c2b3007202200047
:103a5c00030020001e4078008500070024c0b3003e
:103a6c0091c3b300d2092000030020001e4078004f
:103a7c007f00070024c0b300a1c3b300d20920000b
:103a8c00030020001e4078007900070024c0b3001a
:103a9c00b1c3b300d2092000030020001e407800ff
:103aac007300070024c0b300c1c3b300921d2000f3
:103abc00030020001e4078006d00070024c0b300f6
:103acc00d1c3b300921d2000030020001e407800db
:103adc006700070024c0b300e1c3b300921d2000af
:103aec00030020001e407800610007001e4fe80014
:103afc001e407800e54f500054ff36000080fa005d
:103b0c00000006000600fa00404798006000b8006c
:103b1c00008fbe004e4090000080fb008000eb0048
:103b2c00008fbe001e00be000080fa0000000600e0
:103b3c000600fa0040479800514798006000b80012
:103b4c00008fbe004e4090000080fb008000eb0018
:103b5c00008fbe001e01be004818dd00c810de003c
:103b6c00810070004810dd00008fbe005e409000a8
:103b7c000080fb008000eb001e1f70001e97700081
:103b8c001e00be000080fa00000006000800fa00cb
:103b9c004047980051479800624798006000b80071
:103bac00008fbe004e4090000080fb008000eb00b8
:103bbc00008fbe001e00be004809dd00c801de00fb
:103bcc00830171004801dd005e4090000080fb0025
:103bdc008000eb00001f7100019771001e00be00f9
:103bec004809dd00c801de00830171004801dd00d9
:103bfc006e4090000080fb008000eb00001f710005
:103c0c00019771001e00be000080fa000000060043
:103c1c000800fa00100798002107980062479800e6
:103c2c000040eb00004f7800ee4090003000200088
:103c3c000008dd00604798006e4090000081fb009a
:103c4c001e009000ae009000820178008301e90014
:103c5c00030033008100d1000080d300fbff37004c
:103c6c00004f78001e4078000080fa00000006002b
:103c7c000a00fa00204798002207980033079800a2
:103c8c00014f9800144f98000040eb00004f780053
:103c9c002e4090000080fb00e50f50003f003200ea
:103cac00e50f50000c003c00e20f50001d003200ec
:103cbc00e20f500003003c00e10f50000f003200f7
:103ccc0068003700e30f500020003200e40f500072
:103cdc002800320063003700e70f50004300320029
:103cec00e70f500037003500e80f50004900320054
:103cfc00e90f5000510032005a003700ec02a900c5
:103d0c00ec22a800e402a800cc02a800cc22a80057
:103d1c00e462a800e442a800e422a800cd82a80036
:103d2c0050003700ec22a900ec02a800e402a80025
:103d3c00cc02a800cc22a800e462a800e442a800af
:103d4c00e422a800cd82a80046003700e402a900b6
:103d5c00ec22a800ec02a800cc02a800cc22a800ff
:103d6c00e462a800e442a800e422a800cd82a800e6
:103d7c003c003700cc02a900ec22a800e402a80009
:103d8c00ec02a800cc22a800e462a800e442a8003f
:103d9c00e422a800cd82a80032003700cc22a90072
:103dac00ec22a800e402a800cc02a800ec02a800b7
:103dbc00e462a800e442a800e422a800cd82a80096
:103dcc0028003700e462a900ec22a800e402a80055
:103ddc00cc02a800cc22a800ec02a800e442a80067
:103dec00e422a800cd82a8001e003700e442a900fe
:103dfc00ec22a800e402a800cc02a800cc22a80067
:103e0c00e462a800ec02a800e422a800cd82a8007d
:103e1c0014003700e422a900ec22a800e402a80058
:103e2c00cc02a800cc22a800e462a800e442a800be
:103e3c00ec02a800cd82a8000a003700cd82a900b0
:103e4c00ec22a800e402a800cc02a800cc22a80016
:103e5c00e462a800e442a800e422a800ec02a80056
:103e6c00000000000e4890000074a000004f980065
:103e7c000e489000d9040700004f78004001200044
:103e8c0001002000390607001e4890000080fb004e
:103e9c00e20f50000b003200e30f5000190032000b
:103eac00e10f500030003a002e009000be00900050
:103ebc000041eb0056ff0700c8040700004f7800d4
:103ecc00290037002e009000be00900012c0b300f5
:103edc004fff0700c1040700004f7800400120008d
:103eec0001002000210607002e009000be0090006b
:103efc000041eb0046ff0700b8040700004f7800b4
:103f0c00190037002e009000be00900022c0b300b4
:103f1c003fff0700b1040700004f7800400120006c
:103f2c0001002000110607002e009000be0090003a
:103f3c0012c0b30036ff0700a8040700004f78003a
:103f4c004001200001002000080607002e00900010
:103f5c00be0090000041eb002dff07009f040700fe
:103f6c00004f780000000000ec02a800ec22a80032
:103f7c00e402a800cc02a800cc22a800e462a800ad
:103f8c00e442a800e422a800cd82a8001000200082
:103f9c00d90507000080fa00000006000c00fa00aa
:103fac00004f9800114f9800224f98006000b80005
:103fbc00008fbe000040eb00404798000040eb0033
:103fcc00504798000040eb00604798000e48900066
:103fdc000080fb00e50f50003f003200e50f500061
:103fec000c003c00e20f50001d003200e20f5000ac
:103ffc0003003c00e10f50000f0032006800370056
:10400c00e30f500020003200e40f50002800320073
:10401c0063003700e70f500043003200e70f5000f9
:10402c0037003500e80f500049003200e90f50000e
:10403c00510032005a003700ec02a900ec22a80013
:10404c00e402a800cc02a800cc22a800e462a800dc
:10405c00e442a800e422a800cd82a800500037005a
:10406c00ec22a900ec02a800e402a800cc02a800f3
:10407c00cc22a800e462a800e442a800e422a80034
:10408c00cd82a80046003700e402a900ec22a8006b
:10409c00ec02a800cc02a800cc22a800e462a80084
:1040ac00e442a800e422a800cd82a8003c0037001e
:1040bc00cc02a900ec22a800e402a800ec02a800a3
:1040cc00cc22a800e462a800e442a800e422a800e4
:1040dc00cd82a80032003700cc22a900ec22a80027
:1040ec00e402a800cc02a800ec02a800e462a8003c
:1040fc00e442a800e422a800cd82a80028003700e2
:10410c00e462a900ec22a800e402a800cc02a800fa
:10411c00cc22a800ec02a800e442a800e422a800eb
:10412c00cd82a8001e003700e442a900ec22a800b2
:10413c00e402a800cc02a800cc22a800e462a800eb
:10414c00ec02a800e422a800cd82a80014003700dd
:10415c00e422a900ec22a800e402a800cc02a800ea
:10416c00cc22a800e462a800e442a800ec02a8005b
:10417c00cd82a8000a003700cd82a900ec22a8004d
:10418c00e402a800cc02a800cc22a800e462a8009b
:10419c00e442a800e422a800ec02a8000000000001
:1041ac001e4890000074a100104f98001e4890000b
:1041bc000a040700704798005000200001002000fe
:1041cc006a0507002e4890000080fb00e20f5000ab
:1041dc000b003200e30f500017003200e10f5000cb
:1041ec002a003a000040eb00fc030700404798000f
:1041fc004e40900043fe0700008fbe0023003700a6
:10420c000040eb00f50307004047980050002000e9
:10421c0001002000550507000040eb00ef030700ec
:10422c0050479800de4090004e40900040fe070042
:10423c00008fbe00150037000040eb00e7030700bd
:10424c00404798005000200001002000470507005f
:10425c000040eb00e103070050479800500020009d
:10426c0001002000410507000040eb00db030700c4
:10427c00604798006e419000de4090004e409000e8
:10428c0042fe0700008fbe0000000000ec02a800f8
:10429c00ec22a800e402a800cc02a800cc22a800c2
:1042ac00e462a800e442a800e422a800cd82a800a1
:1042bc0050002000010020002c0507001e00be004d
:1042cc000080fa00000006004e00fa00889fbe0035
:1042dc008a1f780040cf98004ec890000080fb00e9
:1042ec00e20f500024003200e30f50004200320075
:1042fc00e10f5000b9003a000040eb00004f78008d
:10430c00190037001e84fb009e4078006ac04000f4
:10431c0032c0b3008040780060c0b3001fff0700bc
:10432c004241dd0002014700640141000089be00ea
:10433c001e80fb004200dd00e400470000804000ce
:10434c001000be001e81fb000201e800809fbe0031
:10435c00821f780000a02900801f780064f40700f9
:10436c00e88757001e4fe8001e407800e24f5000cf
:10437c00e4ff3600990037000040eb00004f780056
:10438c00190037001e84fb009e4078006dc0400071
:10439c0032c0b3008040780060c0b300fffe07005d
:1043ac004241dd0002014700700141000089be005e
:1043bc001e80fb004200dd00f00047000080400042
:1043cc001000be001e81fb000201e800809fbe00b1
:1043dc00821f780030a22900801f780044f4070067
:1043ec00e88757001e4fe8001e407800e24f50004f
:1043fc00e4ff3600790037000040eb00004f7800f6
:10440c001b0037001e40e80022c0b300804078003b
:10441c0060c0b300e1fe0700100798001e81fb008e
:10442c001e009000cf80de004211dd00020147002b
:10443c007c0141000089be001e80fb004200dd00b3
:10444c00fc004700008040001000be001e81fb00f5
:10445c000201e800809fbe00821f780040a4290062
:10446c00801f780022f40700e88757001e4fe800f1
:10447c001e407800e24f5000e2ff36000040eb0097
:10448c00004f78001d0037009e40780064c040004b
:10449c0022c0b3008040780060c0b300bffe0700ac
:1044ac00100798001e81fb001e009000cf80de00dc
:1044bc004211dd00020147008202b0000089be00fb
:1044cc001e80fb004200dd00810220008e80400037
:1044dc00008040001000be001e81fb000201e800bd
:1044ec00809fbe00821f780070a62900801f780074
:1044fc00fff30700e88757001e4fe8001e407800c6
:10450c00e24f5000e0ff36000040eb00004f780017
:10451c002e0037001e85fb001e80fb004200dd00d4
:10452c00fc004700008040001000be00e4f20700d1
:10453c000001be0038f307000004be001e80fb0023
:10454c004200dd00810220008e804000008040008f
:10455c001000be00daf207000001be002ef30700c7
:10456c000001be000800be0057f207005ef3070012
:10457c00b2f207004352dd00040247004403b000ce
:10458c00009abe000292be001e80fb004300dd00bc
:10459c00410320008e804000008040005001be008e
:1045ac004000be001e82fb000402e800809fbe009b
:1045bc00829fbe00841f780050a92900801f7800bc
:1045cc00cbf30700ec8757001e4fe8001e40780025
:1045dc00e24f5000cfff3600000000004f0578007e
:1045ec004f04be000080fa00000006000000fa0034
:1045fc009580a9009560a90080002000001188001a
:10460c002222ef003003200040118800209220006d
:10461c00f040880020922000e0408800b0922000fa
:10462c00d0408800b0922000c04088002068ef0085
:10463c0080342200070007006036220014000700b7
:10464c009560a80021e2a8002342a8000080fa008f
:10465c00000006000200fa00000f78001e0078002f
:10466c000000e00003003a00803422001041880072
:10467c00020037009e007800114188000080fa008b
:10468c00000006000000fa000080fa00000006009e
:10469c000200fa00000f78001e0078000000e00015
:1046ac0003003a00603622002041880002003700e7
:1046bc009e007800214188000080fa00000006006e
:1046cc000000fa000080fa00000006000200fa0068
:1046dc000040eb00004f780000000000d14080004b
:1046ec00c0408000808f5000fcff3200d040800022
:1046fc00104f7800d04080000000e800d0408800c7
:10470c00d140800040932000808f500002003a007e
:10471c00b0922000d04088001e4078000080fa0043
:10472c00000006000200fa00004f780000000000b4
:10473c001c0007000004a2000004e000fcff3a008b
:10474c00e04080001e487800e04080000000e80057
:10475c00e0408800e1408000b0922000808f500043
:10476c0002003a0020922000e04088009580a800ca
:10477c000080fa00000006000000fa00d140800022
:10478c00c04080000080680000f0a7000000ea0034
:10479c000000ea004f00de00004078000080fa00c4
:1047ac00000006000400fa00f14080001107980098
:1047bc00e14080001e009000808f50000600310008
:1047cc009e009000e0408000008050000000e90056
:1047dc00000f7800050037009e009000e04080003c
:1047ec000080500068004000000f78001e00780028
:1047fc0000f0a7000000ea000000ea004f00de0015
:10480c00004078000080fa00000006000000fa006a
:10481c00e1408000f0408000808f500009003a0099
:10482c0011118000001020000080600000f0a70033
:10483c000000ea000000ea004f00de0000407800b3
:10484c00010037000040eb000080fa000000060079
:10485c000400fa00c140800011079800d04080008d
:10486c009e009000808f5000060031009e0090004a
:10487c00d04080000080500069004000000f78009c
:10488c00040037009e009000d04080000080500053
:10489c00000f7800f00f20009e007800808f5000f1
:1048ac000200360000c0eb00020037001e0078004a
:1048bc00004078000080fa00000006000400fa00b6
:1048cc00f140800011079800e14080001e0090002c
:1048dc00808f5000060031009e009000e040800068
:1048ec00008050000000e900000f78000500370040
:1048fc009e009000e0408000008050006800400066
:10490c00000f7800f00f20009e007800808f500080
:10491c000200360000c0eb00020037001e007800d9
:10492c00004078000080fa00000006000800fa0041
:10493c002007980031079800c5ff07000080fb0096
:10494c00000f78003e0090009e0f500002003100d6
:10495c00be009000010f78000000eb0010079800db
:10496c000900370059ff0700ae009000804878001e
:10497c002e0090000000e800200798001e00900018
:10498c000000e800100798001e0090009e0f5000d9
:10499c00f4ff39001e0078000080fa0000000600c9
:1049ac000800fa002007980031079800c3ff0700a1
:1049bc000080fb00000f78003e0090009e0f50001e
:1049cc0002003100be009000010f78000000eb00e7
:1049dc0010079800090037002e0090001040780056
:1049ec00ae0090008100e800210798004dff070001
:1049fc001e0090000000e800100798001e009000b8
:104a0c009e0f5000f4ff39001e0078000080fa0061
:104a1c00000006000400fa000000eb00000f780014
:104a2c008bff070020479800a4ff07003047980031
:104a3c002e4090000080fb000000e00003003200dc
:104a4c00e90f500003003200040037001e20a000c4
:104a5c00040037001e00a000020037001e10a0004a
:104a6c00000000003e4090000080fb000000e000d1
:104a7c0003003200e90f500003003200040037003d
:104a8c001e30a000020037001e40a00000000000f5
:104a9c001e0078000080fa00000006000400fa00f6
:104aac0010079800d14080001e009000008f40003d
:104abc00020037009e007800698f50004093200060
:104acc009e007800808f5000faff3e001e00780098
:104adc00104078000080fa00000006000000fa0088
:104aec005bff07000080fb000000e9004f00de00c8
:104afc00004078000080fa00000006000000fa0078
:104b0c006eff07000080fb000000e9004f00de0094
:104b1c00004078000080fa00000006000000fa0057
:104b2c00101180000080fa00000006000000fa005e
:104b3c0062ff07000004e00010003200f14080002a
:104b4c00e0408000808f500006003600f04080006e
:104b5c0080007800e0408000008050000000e900f8
:104b6c0007003700f040800080007800e0408000b3
:104b7c000080500068004000010037000000eb008e
:104b8c000080fa00000006000000fa0030ff070069
:104b9c000004e00010003200d1408000c0408000d2
:104bac00808f500006003600d040800080007800d6
:104bbc00c0408000008050000000e9000700370072
:104bcc00d040800080007800c04080000080500001
:104bdc0068004000010037000000eb000080fa0084
:104bec00000006000000fa0021e2a8002342a80001
:104bfc000080fa00000006000000fa0021e2a90083
:104c0c002342a9000080fa00000006000000fa0010
:104c1c0000802000019120001100980000802000ed
:104c2c00019120000108780000802000a000900075
:104c3c000110a0002100980000802000a00090002e
:104c4c000100a10021009800008020008040eb00b2
:104c5c006140980030012000a0108800000028005e
:104c6c00b01088001822ef008a40a9009a40a800d2
:104c7c000080fa00000006000200fa00008020000c
:104c8c00e0409000014f78001e4078000080fa0050
:104c9c00000006000000fa00604080006600400042
:104cac00604088000ac8bf000040e9000ae8b7006d
:104cbc000ac8bf000004e00003003a0040002000d6
:104ccc00404088000200370010002000404088005f
:104cdc000080fa00000006000200fa00000f7800c5
:104cec001642a80070408000200090000000e000f8
:104cfc000300320070408000200090001e087800f5
:104d0c000828ef000080fa00000006000800fa00f6
:104d1c00000f78002147980022079800330798006d
:104d2c000080200020009000610060000000e00086
:104d3c000a003a00ae0190002e4190009e007800cf
:104d4c00c0912000770007003e019000c191200027
:104d5c0010c0b3001f000700030037003e00900096
:104d6c008000eb00010878000080fa0000000600cb
:104d7c000800fa00000f78002147980022079800dd
:104d8c003307980000802000200090006100600034
:104d9c000000e0000a003a00ae0190002e419000a5
:104dac009e00780060912000460007003e019000b4
:104dbc006191200010c0b30006000700030037000b
:104dcc003e0090008000eb00010878000080fa00a3
:104ddc00000006000600fa00004f7800110798004a
:104dec0022079800008020002000900061006000e5
:104dfc000000e0002e003a002e0090001100200070
:104e0c000108780000802000100078009e009000bf
:104e1c001100980000802000100078001e487800d7
:104e2c000080200010007800ae0090002100980057
:104e3c000080200010007800e60040000080200078
:104e4c00010878000080200090007800609120001c
:104e5c00808f500003003a00008020000191200058
:104e6c000108780000802000a00090000110a10033
:104e7c00210098000080200090009000008020000d
:104e8c0010007800808f500004003a000080200051
:104e9c00a00090000100a00021009800404080007c
:104eac000000e00005003a008a40a800030037002b
:104ebc002e0090008000eb00010878000080fa00c2
:104ecc00000006000800fa00000f78001107980097
:104edc0042479800330798003e00900000004000c5
:104eec00800078001e007800010878001e00780011
:104efc0010007800800078000100a0001e007800ef
:104f0c00010878001e007800ce40900021409800e7
:104f1c001e0078009e009000210098000080fa008e
:104f2c00000006000800fa00000f78001107980036
:104f3c0042479800330798003e0090000000400064
:104f4c00800078001e007800010878001e007800b0
:104f5c00ce409000214098001e0078009e009000ea
:104f6c00210098000080fa00000006000000fa0002
:104f7c0000802000200090006200600000f0a7007c
:104f8c000000ea000000ea004f00de00004078005c
:104f9c000080fa00000006000000fa0000802000eb
:104fac00200090006100600000f0a7000000ea0003
:104fbc000000ea004f00de00004078000080fa009c
:104fcc00000006000000fa000012200010138800f8
:104fdc001000200020138800c00028000013880057
:104fec000080fa00000006000400fa00000f7800b0
:104ffc0011079800000000000013800062006000a0
:10500c000000e000fcff3a001e0078001040780021
:10501c000080fb004013880000000000011380009a
:10502c0000022000008060000000e000fbff3a005e
:10503c0040138000804078001e00900001487800ea
:10504c000080fa00000006001800fa00100f98000b
:10505c00210f9800320f98000000eb00000f780031
:10506c000000eb00100798000000eb0070079800a0
:10507c000000eb00000f9800100020006007980063
:10508c001e0890000000e00005003a000000eb0054
:10509c005007980070004700200798000400370064
:1050ac00ee009000510798009e0890002107980090
:1050bc003e0890000000e00005003a000000eb0004
:1050cc00400798006e004700300798000500370035
:1050dc00ee00900041079800be0890003107980040
:1050ec000000000000138000620060000000e0007f
:1050fc00fcff3a001d0037000013800062006000c6
:10510c000000e00009003a002e00900010407800ea
:10511c000080fb0040138800ae0090005e00900001
:10512c0000804000200798001e0fe800011380004b
:10513c0000022000008060000000e0000b003a003c
:10514c0040138000804078003e00900001487800b9
:10515c00be0090004e009000008040003007980088
:10516c001e0090000000e800100798002e08900028
:10517c009e007800808f5000dfff39001000370050
:10518c000113800000022000008060000000e0009d
:10519c000b003a0040138000804078003e009000e5
:1051ac0001487800be0090004e0090000080400046
:1051bc00300798001e0090000000e80010079800cf
:1051cc009e0090002e089000808f5000ecff39005c
:1051dc001e0078000080fa00000006000400fa00af
:1051ec00204798000e80e8008e0078007eff0700b4
:1051fc001e4078000080fa00000006000600fa004d
:10520c00000f780011079800220798002e019000db
:10521c009e0090001e0078008bff07000080fa00b3
:10522c00000006000000fa0011138000004020006e
:10523c00008060000000e00002003a000000eb007b
:10524c0001003700100020000080fa00000006006a
:10525c000000fa00001380000080fa000000060035
:020000040000fa
:10526c00d608000020000000000000002608000006
:10527c000200000002000000ffff000038090000df
:10528c0002000000000000002808000002000000de
:10529c0000000000100900001200000000000000d7
:1052ac0000080000180000000000000022090000a7
:1052bc001200000000000000180800000e000000a2
:1052cc00000000002a08000002000000000000009e
:1052dc002c08000088000000020000000100000003
:1052ec00005208005308520008520800520852009d
:1052fc000842080000000000000000000000000050
:10530c000000000000000000000000000000000091
:10531c000002080001017a00087b08007a087a0074
:10532c00087a08007a086a000800000000000000f3
:10533c000000000000000000000000000000000061
:10534c00000000000000020008020200a208a300f6
:10535c0008a20800a208a20008a2080092080000f7
:10536c000000000000000000000000000000000031
:10537c000000000000000000000000002c08540099
:10538c00087c080000000000000000000000000085
:10539c00000000003a0900000200000000000000bc
:1053ac00f60800001a00000002000000686a6c0099
:1053bc00747a4c0000000100000200000400080098
:1053cc0000100000000020002b2d230030000000f6
:1053dc003c09000002000000020000000400000074
:1053ec00340900000400000000000000b4080000b4
:1053fc00220000000200000030313200333435004e
:10540c0036373800394142004344450046003000ed
:10541c00313233003435360037383900616263007d
:10542c0064656600000000003e09000002000000f8
:08543c00000000000000000068
:020000040000fa
